{
  "contractName": "Lottery",
  "abi": [
    {
      "inputs": [],
      "stateMutability": "nonpayable",
      "type": "constructor"
    },
    {
      "anonymous": false,
      "inputs": [
        {
          "indexed": false,
          "internalType": "address",
          "name": "player",
          "type": "address"
        }
      ],
      "name": "PlayerJoined",
      "type": "event"
    },
    {
      "anonymous": false,
      "inputs": [
        {
          "indexed": false,
          "internalType": "address",
          "name": "winner",
          "type": "address"
        },
        {
          "indexed": false,
          "internalType": "uint256",
          "name": "prize",
          "type": "uint256"
        }
      ],
      "name": "WinnerSelected",
      "type": "event"
    },
    {
      "inputs": [],
      "name": "manager",
      "outputs": [
        {
          "internalType": "address",
          "name": "",
          "type": "address"
        }
      ],
      "stateMutability": "view",
      "type": "function",
      "constant": true
    },
    {
      "inputs": [
        {
          "internalType": "uint256",
          "name": "",
          "type": "uint256"
        }
      ],
      "name": "players",
      "outputs": [
        {
          "internalType": "address",
          "name": "",
          "type": "address"
        }
      ],
      "stateMutability": "view",
      "type": "function",
      "constant": true
    },
    {
      "inputs": [],
      "name": "slotPrice",
      "outputs": [
        {
          "internalType": "uint256",
          "name": "",
          "type": "uint256"
        }
      ],
      "stateMutability": "view",
      "type": "function",
      "constant": true
    },
    {
      "inputs": [],
      "name": "slotSize",
      "outputs": [
        {
          "internalType": "uint256",
          "name": "",
          "type": "uint256"
        }
      ],
      "stateMutability": "view",
      "type": "function",
      "constant": true
    },
    {
      "inputs": [],
      "name": "soldSlots",
      "outputs": [
        {
          "internalType": "uint256",
          "name": "",
          "type": "uint256"
        }
      ],
      "stateMutability": "view",
      "type": "function",
      "constant": true
    },
    {
      "inputs": [],
      "name": "getPlayersCount",
      "outputs": [
        {
          "internalType": "uint256",
          "name": "",
          "type": "uint256"
        }
      ],
      "stateMutability": "view",
      "type": "function",
      "constant": true
    },
    {
      "inputs": [],
      "name": "getParticipants",
      "outputs": [
        {
          "internalType": "address[2]",
          "name": "",
          "type": "address[2]"
        }
      ],
      "stateMutability": "view",
      "type": "function",
      "constant": true
    },
    {
      "inputs": [],
      "name": "getPrizeValue",
      "outputs": [
        {
          "internalType": "uint256",
          "name": "",
          "type": "uint256"
        }
      ],
      "stateMutability": "view",
      "type": "function",
      "constant": true
    },
    {
      "inputs": [
        {
          "internalType": "uint256",
          "name": "slot",
          "type": "uint256"
        }
      ],
      "name": "enter",
      "outputs": [],
      "stateMutability": "payable",
      "type": "function",
      "payable": true
    },
    {
      "inputs": [],
      "name": "resetLottery",
      "outputs": [],
      "stateMutability": "nonpayable",
      "type": "function"
    }
  ],
  "bytecode": "0x60806040526000805534801561001457600080fd5b5033600160006101000a81548173ffffffffffffffffffffffffffffffffffffffff021916908373ffffffffffffffffffffffffffffffffffffffff160217905550610af2806100656000396000f3fe6080604052600436106100915760003560e01c8063a59f3e0c11610059578063a59f3e0c1461016d578063a76594bf14610189578063b8760e6b146101b4578063d337616e146101df578063f71d96cb146101f657610091565b806304e04656146100965780632ec49f89146100c1578063481c6a75146100ec5780635aa68ac014610117578063628a0cf814610142575b600080fd5b3480156100a257600080fd5b506100ab610233565b6040516100b891906106bb565b60405180910390f35b3480156100cd57600080fd5b506100d661023f565b6040516100e391906106bb565b60405180910390f35b3480156100f857600080fd5b50610101610245565b60405161010e9190610717565b60405180910390f35b34801561012357600080fd5b5061012c61026b565b60405161013991906107dd565b60405180910390f35b34801561014e57600080fd5b506101576102eb565b60405161016491906106bb565b60405180910390f35b61018760048036038101906101829190610829565b6102f0565b005b34801561019557600080fd5b5061019e610442565b6040516101ab91906106bb565b60405180910390f35b3480156101c057600080fd5b506101c961044b565b6040516101d691906106bb565b60405180910390f35b3480156101eb57600080fd5b506101f4610453565b005b34801561020257600080fd5b5061021d60048036038101906102189190610829565b6104b7565b60405161022a9190610717565b60405180910390f35b67016345785d8a000081565b60005481565b600160009054906101000a900473ffffffffffffffffffffffffffffffffffffffff1681565b610273610680565b600280806020026040519081016040528092919082600280156102e1576020028201915b8160009054906101000a900473ffffffffffffffffffffffffffffffffffffffff1673ffffffffffffffffffffffffffffffffffffffff1681526020019060010190808311610297575b5050505050905090565b600281565b600081101580156103015750600281105b61030a57600080fd5b600073ffffffffffffffffffffffffffffffffffffffff166002826002811061033657610335610856565b5b0160009054906101000a900473ffffffffffffffffffffffffffffffffffffffff1673ffffffffffffffffffffffffffffffffffffffff161461037857600080fd5b67016345785d8a0000341461038c57600080fd5b33600282600281106103a1576103a0610856565b5b0160006101000a81548173ffffffffffffffffffffffffffffffffffffffff021916908373ffffffffffffffffffffffffffffffffffffffff16021790555060016000546103ef91906108b4565b6000819055507f31e760aa525306aba638a784082a013b6a1cc0a9a1789f3f22281c0453b10b1f336040516104249190610717565b60405180910390a160026000541061043f5761043e6104ed565b5b50565b60006002905090565b600047905090565b600160009054906101000a900473ffffffffffffffffffffffffffffffffffffffff1673ffffffffffffffffffffffffffffffffffffffff163373ffffffffffffffffffffffffffffffffffffffff16146104ad57600080fd5b6104b56105d1565b565b600281600281106104c757600080fd5b016000915054906101000a900473ffffffffffffffffffffffffffffffffffffffff1681565b60006002806104fa61064c565b6105049190610917565b6002811061051557610514610856565b5b0160009054906101000a900473ffffffffffffffffffffffffffffffffffffffff169050600061054361044b565b90508173ffffffffffffffffffffffffffffffffffffffff166108fc829081150290604051600060405180830381858888f1935050505015801561058b573d6000803e3d6000fd5b507f75060f9e79552df167b73353fee6237a75bb5ba8ea022f77224e32f152138bcb82826040516105bd929190610948565b60405180910390a16105cd6105d1565b5050565b6000805560005b6002811015610649576000600282600281106105f7576105f6610856565b5b0160006101000a81548173ffffffffffffffffffffffffffffffffffffffff021916908373ffffffffffffffffffffffffffffffffffffffff160217905550808061064190610971565b9150506105d8565b50565b6000426002604051602001610662929190610a93565b6040516020818303038152906040528051906020012060001c905090565b6040518060400160405280600290602082028036833780820191505090505090565b6000819050919050565b6106b5816106a2565b82525050565b60006020820190506106d060008301846106ac565b92915050565b600073ffffffffffffffffffffffffffffffffffffffff82169050919050565b6000610701826106d6565b9050919050565b610711816106f6565b82525050565b600060208201905061072c6000830184610708565b92915050565b600060029050919050565b600081905092915050565b6000819050919050565b61075b816106f6565b82525050565b600061076d8383610752565b60208301905092915050565b6000602082019050919050565b61078f81610732565b610799818461073d565b92506107a482610748565b8060005b838110156107d55781516107bc8782610761565b96506107c783610779565b9250506001810190506107a8565b505050505050565b60006040820190506107f26000830184610786565b92915050565b600080fd5b610806816106a2565b811461081157600080fd5b50565b600081359050610823816107fd565b92915050565b60006020828403121561083f5761083e6107f8565b5b600061084d84828501610814565b91505092915050565b7f4e487b7100000000000000000000000000000000000000000000000000000000600052603260045260246000fd5b7f4e487b7100000000000000000000000000000000000000000000000000000000600052601160045260246000fd5b60006108bf826106a2565b91506108ca836106a2565b92508282019050808211156108e2576108e1610885565b5b92915050565b7f4e487b7100000000000000000000000000000000000000000000000000000000600052601260045260246000fd5b6000610922826106a2565b915061092d836106a2565b92508261093d5761093c6108e8565b5b828206905092915050565b600060408201905061095d6000830185610708565b61096a60208301846106ac565b9392505050565b600061097c826106a2565b91507fffffffffffffffffffffffffffffffffffffffffffffffffffffffffffffffff82036109ae576109ad610885565b5b600182019050919050565b600060029050919050565b6000819050919050565b60008160001c9050919050565b600073ffffffffffffffffffffffffffffffffffffffff82169050919050565b6000610a0e610a09836109ce565b6109db565b9050919050565b6000610a2182546109fb565b9050919050565b6000600182019050919050565b610a3e816109b9565b610a48818461073d565b9250610a53826109c4565b8060005b83811015610a8b57610a6882610a15565b610a728782610761565b9650610a7d83610a28565b925050600181019050610a57565b505050505050565b6000606082019050610aa860008301856106ac565b610ab56020830184610a35565b939250505056fea26469706673582212203c5e41948b03d8a20376e9064ab2099300fd38ef9d06471c57297ffd98e699e264736f6c63430008110033",
  "immutableReferences": {},
  "source": "//SPDX-License-Identifier: MIT\npragma solidity ^0.8.0;\n\ncontract Lottery {\n    uint public constant slotPrice = 0.1 ether;\n    uint public constant slotSize = 2;\n    uint public soldSlots = 0;\n\n    address public manager;\n    address[slotSize] public players;\n\n    event PlayerJoined(address player);\n\n    event WinnerSelected(address winner, uint256 prize);\n\n    modifier isManager {\n        require(msg.sender == manager);\n        _;\n    }\n\n    constructor() {\n        manager = msg.sender;\n    }\n\n    function getPlayersCount() public view returns (uint) {\n        return players.length;\n    }\n\n    function getParticipants() public view returns (address[slotSize] memory) {\n        return players;\n    }\n\n    function getPrizeValue() public view returns (uint256) {\n        return address(this).balance;\n    }\n\n    function enter(uint slot) external payable {\n        require(slot >= 0 && slot < slotSize);\n        require(players[slot] == address(0x0));\n        require(msg.value == slotPrice);\n\n        players[slot] = msg.sender;\n        soldSlots = soldSlots + 1;\n\n        emit PlayerJoined(msg.sender);\n\n        if (soldSlots >= slotSize) {\n            pickWinner();\n        }\n    }\n\n    function random() private view returns (uint) {\n        return uint(keccak256(abi.encode(block.timestamp,  players)));\n    }\n\n    function pickWinner() private {\n        address winner = players[random() % players.length];\n\n        uint256 prize = getPrizeValue();\n\n        payable (winner).transfer(prize);\n\n        emit WinnerSelected(winner, prize);\n\n        reset();\n    }\n\n    function reset() private {\n        delete soldSlots;\n\n        for (uint i = 0; i < players.length; i++) {\n            players[i] = address(0x0);\n        }\n    }\n\n    function resetLottery() public isManager {\n        reset();\n    }\n}",
  "sourcePath": "/Users/martynasskrebe/Library/CloudStorage/OneDrive-VilniusUniversity/3 semestras/BGT/Simple smart contract/contracts/Lottery.sol",
  "compiler": {
    "name": "solc",
    "version": "0.8.17+commit.8df45f5f.Emscripten.clang"
  },
  "schemaVersion": "3.4.11",
  "updatedAt": "2022-11-28T16:06:02.911Z",
  "networkType": "ethereum",
  "devdoc": {
    "kind": "dev",
    "methods": {},
    "version": 1
  },
  "userdoc": {
    "kind": "user",
    "methods": {},
    "version": 1
  }
}